:020000040000FA
:0400000013EF00F00A
:06000800108201ED03F07F
:100018001080E0CF0DF00DC0E0FF109010002EEF23
:0200280004F0E2
:1006000000000600F2A207EF03F009EF03F046EF47
:1006100003F0010E0E24096E000E0F200A6E030E69
:1006200009140E6E0F6A29EF03F03DEC04F043EF5E
:1006300003F037EC04F0010E8B6E43EF03F041EC56
:1006400004F0030E8B6E43EF03F0FDEC03F043EF79
:1006500003F00EC009F00FC00AF00A50000AD8B427
:1006600034EF03F025EF03F00950010AD8B415EF79
:1006700003F0030AD8B419EF03F0010AD8B41FEF4E
:1006800003F025EF03F0F29272EF03F0F2A44BEFC8
:1006900003F04DEF03F050EF03F0F29472EF03F02C
:1006A0009EAC55EF03F057EF03F072EF03F00E042A
:1006B0000F10D8A45EEF03F060EF03F06FEF03F0CC
:1006C000C3CF0BF00C6A0BC001F00CC002F0000E9F
:1006D000046E040E036E74EC03F001508B6E9E9C4E
:1006E00072EF03F010921100000E066E04BE7DEF53
:1006F00003F07BEF03F083EF03F0036C041ED8B02C
:10070000042A010E066E02BE8AEF03F088EF03F0A2
:1007100090EF03F0016C021ED8B0022A010E061AF7
:10072000000E086E000E076E03500410D8B49BEF45
:1007300003F09DEF03F0C5EF03F0010E056EA5EF8A
:1007400003F0D89003360436052A04AEAAEF03F06E
:10075000ACEF03F0A1EF03F0D89007360836035052
:10076000015C04500258D8A0B8EF03F0BAEF03F0D0
:10077000BFEF03F00350015E0450025A0780D89087
:1007800004320332052EACEF03F00650D8B4CBEFA1
:1007900003F0CDEF03F0D1EF03F0076C081ED8B0E3
:1007A000082A07C001F008C002F01200D3508F0BD6
:1007B0004009D36E030E926E010E936E000E946E7E
:1007C000000E8B6ED09E9D8C9E9CF292F28CF28ECF
:1007D000C150F00B0D09C16EC198C19AC09EF80EB0
:1007E000C016C050C70B0809C06EC280F28AF294CE
:1007F000F184D59CF80ED5161200D3508F0B40090A
:10080000D36E030E926E010E936E000E946E000E68
:100810008B6ED09E9D8C9E9CF292F28CF28EC1507B
:10082000F00B0D09C16EC198C19AC09EF80EC0169A
:10083000C050C70B0809C06EC280F28AF294F184DE
:10084000D59CF80ED5161200D6EC03F0000E0F6EF4
:10085000000E0E6E2AEF04F013EF00F00F6A0E6A1E
:1008600010901092000EF86E000124EF04F0C250B8
:10087000C30B0409C26EC2821200C30EC216C2822A
:040880001200120050
:020000040020DA
:08000000FFFFFFFFFFFFFFFF00
:020000040030CA
:0E000000FF081B1EFF8181FF0FC00FE00F40A5
:00000001FF
